{
  "contractName": "Trying2",
  "abi": [
    {
      "inputs": [],
      "name": "age",
      "outputs": [
        {
          "internalType": "uint256",
          "name": "",
          "type": "uint256"
        }
      ],
      "stateMutability": "view",
      "type": "function",
      "constant": true
    },
    {
      "inputs": [
        {
          "internalType": "uint256",
          "name": "_a",
          "type": "uint256"
        }
      ],
      "name": "setter",
      "outputs": [],
      "stateMutability": "nonpayable",
      "type": "function"
    },
    {
      "inputs": [],
      "name": "getter",
      "outputs": [
        {
          "internalType": "uint256",
          "name": "",
          "type": "uint256"
        }
      ],
      "stateMutability": "view",
      "type": "function",
      "constant": true
    }
  ],
  "bytecode": "0x608060405234801561001057600080fd5b50610176806100206000396000f3fe608060405234801561001057600080fd5b50600436106100415760003560e01c8063262a9dff14610046578063993a04b714610064578063d423740b14610082575b600080fd5b61004e61009e565b60405161005b9190610104565b60405180910390f35b61006c6100a4565b6040516100799190610104565b60405180910390f35b61009c600480360381019061009791906100cc565b6100ad565b005b60005481565b60008054905090565b8060008190555050565b6000813590506100c681610129565b92915050565b6000602082840312156100de57600080fd5b60006100ec848285016100b7565b91505092915050565b6100fe8161011f565b82525050565b600060208201905061011960008301846100f5565b92915050565b6000819050919050565b6101328161011f565b811461013d57600080fd5b5056fea26469706673582212207d440cbb0c80425b257dad53a3e2c04636e213d3787dc573d9fd98db65dbfd7564736f6c63430008000033",
  "immutableReferences": {},
  "source": "// SPDX-License-Identifier: GPL-3.0\r\n\r\npragma solidity >=0.5.0 <0.9.0;\r\n\r\ncontract Trying2{\r\n    uint public age;\r\n    function setter(uint _a)public{\r\n        age = _a;\r\n    }\r\n    function getter()public view returns(uint){\r\n        return age;\r\n    }\r\n}",
  "sourcePath": "C:\\Users\\khann\\Desktop\\BlockChain\\3\\1_Truffle\\contracts\\second.sol",
  "compiler": {
    "name": "solc",
    "version": "0.8.0+commit.c7dfd78e.Emscripten.clang"
  },
  "schemaVersion": "3.4.14",
  "updatedAt": "2023-07-20T19:10:03.573Z",
  "networkType": "ethereum",
  "devdoc": {
    "kind": "dev",
    "methods": {},
    "version": 1
  },
  "userdoc": {
    "kind": "user",
    "methods": {},
    "version": 1
  }
}